:200000000C94E30C0C94100D0C94100D0C94100D0C94100D0C94100D0C94100D0C94100D26
:200020000C94100D0C94100D0C94100D0C94100D0C94100D0C9454C60C94100D0C94100DDB
:200040000C94100D0C94296E0C94100D0C94100D0C94100D0C94100D0C94E0770C94D0C28F
:200060000C94100D0C947E230C94100D0C94100D0C94100D0C94100D0C94100D0C94100D14
:200080000C94100D0C94100D0C94100D0C94100D0C94100D0C94100D0C94100D0C94100D78
:2000A0000C94100D0C94100D0C94100D0C94100D0C94100D0C94100D0C94100D0C94100D58
:2000C0000C94100D0C94100D0C94100D0C94100D0C94100D0C94100D0C94100D0C94100D38
:2000E0000C94100D084AD73B3BCE016E84BCBFFDC12F3D6C74319ABD56833DDA3D00C77F63
:2001000011BED9E4BB4C3E916BAAAABE000000803F05A84CCDB2D44EB93836A9020C50B9C0
:20012000918688083CA6AAAA2ABE000000803F4D383420582059205A2045006563686F3AD9
:200140000043616E6E6F7420656E746572207375626469723A20004D3234004D3233202551
:2001600073006175746F25692E67004572726F723A006572726F722077726974696E67207E
:20018000746F2066696C65004E6F74205344207072696E74696E67002F0053442070726918
:2001A0006E74696E67206279746520002E0044656C6574696F6E206661696C65642C2046B2
:2001C000696C653A200046696C652064656C657465643A002E006F70656E206661696C65D9
:2001E000642C2046696C653A200057726974696E6720746F2066696C653A20002E006F7067
:20020000656E206661696C65642C2046696C653A20002E006F70656E206661696C65642CCF
:200220002046696C653A200046696C652073656C6563746564002053697A653A2000466917
:200240006C65206F70656E65643A20002E006F70656E206661696C65642C2046696C653A6D
:20026000200053442063617264206F6B006F70656E526F6F74206661696C656400766F6CE7
:20028000756D652E696E6974206661696C656400534420696E6974206661696C0065636859
:2002A0006F3A0048617264636F6465642044656661756C742053657474696E6773204C6FE6
:2002C000616465640053746F7265642073657474696E677320726574726965766564005351
:2002E000657474696E67732053746F726564006563686F3A004572726F723A0053544F500C
:200300005045442E20005072696E7465722073746F707065642064756520746F20657272E9
:200320006F72732E2046697820746865206572726F7220616E6420757365204D3939392051
:20034000746F20726573746172742E202854656D70657261747572652069732072657365C6
:20036000742E205365742069742061667465722072657374617274696E6729004B494C4CA8
:2003800045442E20005072696E7465722068616C7465642E206B696C6C28292063616C6C09
:2003A000656421006F6B00526573656E643A20002200556E6B6E6F776E20636F6D6D616E11
:2003C000643A202200486F74656E64206F6666736574733A007A5F6D61783A20007A5F6DC8
:2003E000696E3A2000795F6D61783A2000795F6D696E3A2000785F6D61783A2000785F6D23
:20040000696E3A20005A3A00593A0020436F756E7420583A2000453A005A3A00593A00588B
:200420003A004649524D574152455F4E414D453A4D61726C696E2056313B20537072696EFA
:200440007465722F6772626C206D617368757020666F722067656E36204649524D5741529E
:20046000455F55524C3A68747470733A2F2F7777772E736F6D657468696E6733442E636F08
:200480006D2050524F544F434F4C5F56455253494F4E3A312E30204D414348494E455F5447
:2004A0005950453A536F6D657468696E6733442045585452554445525F434F554E543A3208
:2004C0000A0042656420646F6E652E0020423A0020453A00543A0042656420486561746934
:2004E0006E672E0048656174696E6720646F6E652E0020573A0020453A00543A0048656159
:2005000074696E672E2E2E002042403A0020403A00202F0020423A00202F006F6B20543A67
:20052000002569206D696E2C2025692073656300456E642066696C65206C6973740042653A
:2005400067696E2066696C65206C697374004E6F206D6F76652E00526573756D696E672095
:200560007072696E74005761697420666F7220757365722E2E2E00536C6565702E2E2E0066
:2005800000008C4300008743000087430000A0400000A0400000803FFFFFFF00000000007C
:2005A0000000000000000000000000000000000000000000008C43000087430000874325B3
:2005C0006920686F757273202569206D696E7574657300446F6E65207072696E74696E677D
:2005E0002066696C650053544F505045442E20005072696E7465722073746F7070656420AB
:2006000064756520746F206572726F72732E2046697820746865206572726F7220616E6469
:2006200020757365204D39393920746F20726573746172742E202854656D706572617475E0
:2006400072652069732072657365742E20536574206974206166746572207265737461722A
:2006600074696E6729006F6B004E6F204C696E65204E756D626572207769746820636865AB
:20068000636B73756D2C204C617374204C696E653A20004E6F20436865636B73756D2077AE
:2006A000697468206C696E65206E756D6265722C204C617374204C696E653A200063686572
:2006C000636B73756D206D69736D617463682C204C617374204C696E653A20004C696E6517
:2006E000204E756D626572206973206E6F74204C617374204C696E65204E756D6265722BF4
:20070000312C204C617374204C696E653A20004D31313000446F6E6520736176696E672099
:2007200066696C652E006F6B004D3239002020506C616E6E6572427566666572427974655B
:20074000733A20002046726565204D656D6F72793A2000446563202035203230313300438D
:200760006F6D70696C65643A2000446F74616E204B6F736B617300207C20417574686F7284
:200780003A0044656320203520323031332031313A32313A303000204C6173742055706402
:2007A000617465643A2000312E302E30004D61726C696E205333440020536F667477617201
:2007C0006520526573657400205761746368646F67205265736574002042726F776E206F66
:2007E0007574205265736574002045787465726E616C20526573657400506F776572557095
:20080000007374617274002200656E717565696E672022002200656E717565696E6720222A
:20082000006563686F3A0020746F6F206C6F6E6720657874727573696F6E2070726576654A
:200840006E7465640020636F6C6420657874727573696F6E2070726576656E746564007CB1
:200860003C3E5E2B3D3F2F5B5D3B2C2A225C0045313A200045303A20005A3A2000593A20FD
:2008800000583A20004D53312C4D53322050696E730A0024F404D9201BC40C5C0E9804C449
:2008A000095F0265077101F405F900FB04B30048048700C10369005803550003034500BE93
:2008C000023A008402310053022A002902250004022000E4011C00C8011900AF01170098EE
:2008E00001140084011300710110006101100051010E0043010D0036010B002B010B00200D
:20090000010B00150109000C01090003010800FB000800F3000800EB000700E4000600DED2
:20092000000600D8000600D2000600CC000500C7000500C2000500BD000400B9000400B564
:20094000000400B1000400AD000400A9000400A5000300A20003009F0004009B000300985A
:200960000003009500020093000300900003008D0002008B00030088000200860002008401
:20098000000300810002007F0002007D0002007B0002007900020077000100760002007475
:2009A00000020072000100710002006F0002006D0001006C0002006A0001006900020067C5
:2009C0000001006600010065000100640002006200010061000100600001005F0002005DFF
:2009E0000001005C0001005B0001005A00010059000100580001005700010056000100552B
:200A00000001005400010053000000530001005200010051000100500001004F0001004E45
:200A20000000004E0001004D0001004C0001004B0000004B0001004A000100490001004858
:200A4000000000480001004700010046000000460001004500000045000100440001004365
:200A60000000004300010042000000420001004100000041000100400001003F0000003F6B
:200A80000001003E0000003E0001003D0000003D0001003C0000003C0000003C0001003B6D
:200AA0000000003B0001003A0000003A00010039000000390001003800000038000000386A
:200AC000000100370000003700010036000000360000003600010035000000350000003564
:200AE00000010034000000340000003400010033000000330000003300010032000000325A
:200B0000000000320001003100000031000000310001003000000030000000300001002F4E
:200B20000000002F0000002F0000002F0001002E0000002E0000002E0001002D0000002D42
:200B40000000002D0000002D0001002C0000002C0000002C0000002C0001002B0000002B33
:200B60000000002B0000002B0001002A0000002A0000002A0000002A000100290000002923
:200B8000000000290000002900000029000100280000002800000028000000280000002811
:200BA0000001002700000027000000270000002700000027000100260000002600000026FE
:200BC0000000002600000026000100250000002500000025000000250000002500000025EA
:200BE0000001002400000024000000240000002400000024000100230000002300000023D6
:200C00000000002300000023000000230000002300010022000000220000002200000022BF
:200C20000000002200000022000100210000002100000021000000210000002100000021A9
:200C4000000000210001002000000020000000200000002000000020000000200000002092
:200C6000000000200001001F0000001F0000001F0000001F0000001F0000001F0000001F7A
:200C80000001001E0000001E0000001E0000001E00000024F4D43050C38E20C2A2401782C1
:200CA0008B7011127A910D816CD90AA861E108C7586607615143061E4B5D05C145A7041A1F
:200CC000411104093D9803713931034036DB0265339102D4305402802E1D02632CEE017567
:200CE0002AC501B028A001102781018F2564012B244B01E0223401AC211F018D200D0180BF
:200D00001FFC00841EED00971DDF00B81CD200E61BC600201BBC00641AB200B219A8000A85
:200D200019A0006A189900D117910040178B00B516840031167E00B31579003A157300C7A6
:200D4000146F0058146A00EE1366008813630025135E00C7125B006C12570015125400C1FA
:200D600011510070114F0021114B00D61049008D1047004610440002104200C00F40008034
:200D80000F3E00420F3C00060F3B00CB0E3800930E37005C0E3500270E3400F30D3200C145
:200DA0000D3100900D3000600D2E00320D2D00050D2C00D90C2B00AE0C2900850C29005CDA
:200DC0000C2700350C27000E0C2600E80B2400C40B2400A00B23007D0B23005A0B210039F6
:200DE0000B2100180B2000F80A1F00D90A1E00BB0A1E009D0A1D00800A1D00630A1C004744
:200E00000A1B002C0A1B00110A1A00F7091A00DD091900C4091900AB091900920917007B2E
:200E2000091800630917004C09160036091600200916000A091500F5081500E0081400CC0D
:200E4000081400B8081400A4081400900813007D0812006B08130058081200460812003414
:200E6000081100230811001208110001081100F0071000E0071000D0071000C0071000B06C
:200E8000070F00A107100091070E0083070F0074070F0065070E0057070E0049070E003B3C
:200EA000070D002E070E0020070D0013070D0006070D00F9060C00ED060D00E0060C00D495
:200EC000060C00C8060C00BC060C00B0060C00A4060B0099060C008D060B0082060B00778E
:200EE000060B006C060B0061060A0057060B004C060A0042060A0038060A002E060A002433
:200F0000060A001A060A001006090007060A00FD050900F4050900EB050900E2050900D992
:200F2000050900D0050900C7050900BE050900B5050800AD050800A50509009C05080094B8
:200F40000508008C050800840508007C050800740508006C050700650508005D05070056A7
:200F60000508004E050700470507004005080038050700310507002A050700230507001C68
:200F8000050600160507000F0507000805060002050700FB040600F5040700EE040600E803
:200FA000040600E2040700DB040600D5040600CF040600C9040600C3040600BD040600B77F
:200FC000040600B1040500AC040600A6040600A00405009B04060095040500900406008AD7
:200FE00004050085040500800406007A04050075040500700405006B040500660405006112
:201000000405005C04050057040500520405004D04050048040500430405003E0404003A34
:2010200004050035040500300404002C04050027040400230405001E0404001A0404001643
:20104000040500110404000D040400090405000404040000040400FC030400F8030400F43D
:20106000030400F0030400EC030400E8030400E4030400E0030400DC030400D8030400D428
:20108000030400D0030400CC030400C8030300C50303006563686F3A00656E6473746F7030
:2010A00073206869743A205A00205A3A00656E6473746F7073206869743A20590020593AB5
:2010C00000656E6473746F7073206869743A20580020583A00656E6473746F707320686976
:2010E000743A20004572726F723A004572723A204D415854454D50204245440054656D70BE
:20110000657261747572652068656174656420626564207377697463686564206F66662EFD
:20112000204D415854454D5020747269676765726564202121004572723A204D494E544534
:201140004D50003A204578747275646572207377697463686564206F66662E204D494E54E9
:20116000454D50207472696767657265642021004572723A204D415854454D50003A204531
:2011800078747275646572207377697463686564206F66662E204D415854454D50207472FB
:2011A00069676765726564202100202D20496E76616C6964206578747275646572206E754D
:2011C0006D62657220210070012C0190012701B0012201C0011D01F00118011002130130BE
:2011E000020E016002090190020401C002FF000003FA004003F5008003F000D003EB002094
:2012000004E6007004E100E004DC004005D700C005D2004006CD00D006C8008007C30030F1
:2012200008BE00F008B900C009B400B00AAF00B00BAA00D00CA500000EA000500F9B00C003
:201240001096005012910000148C00C0158700B0178200B0197D00D01B7800001E73004036
:20126000206E0090226900F024640040275F0090295A00E02B5500102E500020304B0010DB
:20128000324600E033410090353C001037370070383200A0392D00B03A2800A03B230060B3
:2012A0003C1E00103D1900903D1400103E0F00703E0A00C03E0500003F00005049442041F8
:2012C00075746F74756E652066696E6973686564202120506C61636520746865204B702CE2
:2012E000204B6920616E64204B6420636F6E7374616E747320696E2074686520636F6E66DD
:20130000696775726174696F6E2E6800504944204175746F74756E65206661696C6564216D
:201320002074696D656F75740020403A006F6B20543A006F6B20423A0050494420417574C7
:201340006F74756E65206661696C6564212054656D706572617475726520746F20686967B3
:201360006800204B643A2000204B693A2000204B703A200020436C617369632050494420ED
:20138000002054753A2000204B753A2000206D61783A2000206D696E3A200020643A200074
:2013A00020626961733A20002D2D3A2D2D002D2D2D005344000120000120000120004E6FE8
:2013C0002043617264005072696E742066726F6D2053440053746F70205072696E740052B6
:2013E0006573756D65205072696E74005061757365205072696E7400436F6E74726F6C0095
:20140000507265706172650054756E6500496E666F2073637265656E00052E2E004D6169BD
:201420006E004D3234004D3233202573004D383420582059205A204500526573746F7265B4
:20144000204661696C73616665004C6F6164206D656D6F72790053746F7265206D656D6F3D
:201460007279004D6F74696F6E0054656D7065726174757265004D61696E004573746570F7
:20148000732F6D6D004573746570732F6D6D005A73746570732F6D6D005A73746570732F09
:2014A0006D6D005973746570732F6D6D005973746570732F6D6D005873746570732F6D6DA0
:2014C000005873746570732F6D6D00412D7265747261637400412D72657472616374004175
:2014E0006D6178206500416D6178206500416D6178207A00416D6178207A00416D6178202C
:201500007900416D6178207900416D6178207800416D61782078005654726176206D696E9D
:20152000005654726176206D696E00566D696E00566D696E00566D6178206500566D617863
:20154000206500566D6178207A00566D6178207A00566D6178207900566D617820790056DA
:201560006D6178207800566D617820780056652D6A65726B0056652D6A65726B00567A2D34
:201580006A65726B00567A2D6A65726B005678792D6A65726B005678792D6A65726B004175
:2015A0006363656C00416363656C00436F6E74726F6C0050726568656174204142532043B9
:2015C0006F6E66005072656865617420504C4120436F6E66005049442D43005049442D43C2
:2015E000005049442D44005049442D44005049442D49005049442D49005049442D500050FF
:2016000049442D5000200220466163740020022046616374002002204D6178002002204D49
:201620006178002002204D696E002002204D696E004F6666004F6E20004F6666004F6E2015
:20164000004175746F74656D700046616E2073706565640046616E20737065656400426508
:201660006400426564004E6F7A7A6C6533004E6F7A7A6C6533004E6F7A7A6C6532004E6F20
:201680007A7A6C6532004E6F7A7A6C65004E6F7A7A6C6500436F6E74726F6C0053746F72C6
:2016A00065206D656D6F72790042656400426564004E6F7A7A6C65004E6F7A7A6C650046AC
:2016C000616E2073706565640046616E2073706565640054656D70657261747572650053E3
:2016E000746F7265206D656D6F72790042656400426564004E6F7A7A6C65004E6F7A7A6CC2
:20170000650046616E2073706565640046616E2073706565640054656D70657261747572AF
:2017200065004D6F76652041786973004D3130342053300A4D31343020533000436F6F6C57
:20174000646F776E005072656865617420414253005072656865617420504C41004732389B
:20176000004175746F20486F6D65004D38340044697361626C652053746570706572730044
:201780004D61696E004D6F766520302E316D6D004D6F766520316D6D004D6F7665203130CA
:2017A0006D6D0050726570617265004578747275646572004D6F7665205A004D6F76652065
:2017C00059004D6F76652058004D6F76652041786973004578747275646572005A0059004F
:2017E0005800466C6F7700466C6F770046616E2073706565640046616E20737065656400D5
:2018000042656400426564004E6F7A7A6C6533004E6F7A7A6C6533004E6F7A7A6C65320094
:201820004E6F7A7A6C6532004E6F7A7A6C65004E6F7A7A6C65005370656564005370656572
:2018400064004D61696E00436172642072656D6F766564004361726420696E73657274657F
:20186000640000002100240027002A002D003000330001010000040107010A0100002200A2
:20188000250028002B002E003100340002010000050108010B01000020002300260029008D
:2018A0002C002F0032000001000003010601090105050505070508080808020202020A0A29
:2018C00008080404040401010101010101010303030303030303040707070C0C0C0C0C0C67
:2018E0000C0C0202020206060606060606060B0B0B0B0B0B0B0B010210202008081020406D
:2019000010204080020102010804020101020408102040808040201008040201800402013D
:20192000804020100804020108040201010204081020408001020408102040800000090A88
:2019400002080B0C0D07060304010000000000000000000000000000000000000000000044
:20196000000000000000000011100F00000000000000000000000000000000000000000037
:20198000000002494E46494E4954594E414ECDCCCC3D0AD7233C17B7D13877CC2B3295957B
:2019A000E6241FB14F0A000020410000C84200401C4620BCBE4CCA1B0E5AAEC59D741224FA
:2019C000C22648BCBD2611241FBECFEFD1E2DEBFCDBF00E00CBF14E0A0E0B2E0E8E1FEE92B
:2019E00001E00BBF02C007900D92AE37B107D9F71BBE11E1AEE7B4E001C01D92A130B107EA
:201A0000E1F719E1C4ECD9E104C02297FE010E94B2CECE3BD107C9F70E94AEC50C9400CFC7
:201A20000C940000A0E0B0E0E8E1FDE00C94CFCEEC015B016115710519F0FB0191838083C2
:201A4000F9908F2D90E00E94B6CE892BC9F7FDE2FF1621F4F990EE24E39405C02BE2F21642
:201A600009F4F990EE248E0101501040C80163E879E143E050E072D2892BF9F48E010E5FFC
:201A80001F4FC80166E879E145E050E067D2892B19F48E01095F1F4FA114B10419F0F5014A
:201AA00011830083E0FC04C070E090E080E813C070E090E080E86FEF07C1C8016BE879E1B0
:201AC00043E050E04BD2892B69F4A114B10429F470E090E080EC6FE7F7C02296F501D183C3
:201AE000C083F6CF8824992440E050E060E070E0EF2DE053EA30A0F5F2E0EF2A8E2D90E081
:201B00009C0128703070E2FE06C0232B79F50894811C911C2BC0232B19F0089481089108A8
:201B2000DB01CA0112E0880F991FAA1FBB1F1A95D1F7480F591F6A1F7B1F440F551F661F65
:201B4000771F4E0F511D611D711D483929E9520729E9620729E1720748F084E0E82A06C0BA
:201B6000EE3F31F4E3FC39C098E0E92AF990C0CFE53311F0E53189F529912D3219F4E0E104
:201B8000EE2A05C02B3219F081E090E003C0299182E090E0E22FE053EA3018F0C81BD90BB5
:201BA0001CC020E030E0FCE020383F075CF4C901880F991F880F991F280F391F220F331FF5
:201BC0002E0F311DE991E053EA3068F3E4FE03C0309521953F4F820E931ECE2CDD24E1FE8F
:201BE00007C0A114B10421F02197F501D183C083CB01BA010E941BCB7B018C01F3E0CF2282
:201C0000DD2423E0C216D10421F417FB109517F9109557016801C801B70120E030E040E020
:201C200050E00E947BCA882309F44AC097FE0DC022EAE22E29E1F22E90948194910893943A
:201C4000C0E2D0E000E010E012C09AEBE92E99E1F92EF6CFF7012591359145915491C60198
:201C6000B5010E945BCD5B016C018C1A9D0A8C169D0684F7D595C7950F5F1F4F0630110520
:201C800029F08CEF9FEFE80EF91EF1CFC501D6017C018D018C2D880F8D2D881F8F3F51F0ED
:201CA000C601B50120E030E040E050E00E947BCA882331F482E290E0909300118093FF1066
:201CC0007E2D9F2D802F612F272F392F482F562FB901CA01CDB7DEB7ECE00C94EBCE2F9210
:201CE0003F925F926F927F928F929F92AF92BF92CF92DF92EF92FF920F931F93CF93DF9320
:201D00008C011B01EA016115710519F0FB0191838083209749F0CE010297839728F020E09D
:201D200030E040E050E0F6C0F801A1908F018A2D90E00E94B6CE892BB9F7FDE2AF1631F459
:201D4000F801A1908F015524539407C0FBE2AF1619F4F801A1908F015524209719F0C0310F
:201D6000D105C1F4F0E3AF1679F4F8018081883711F0883549F4F801A1800E5F1F4FF2E058
:201D80005F2AC0E1D0E006C0209721F480E3A816E9F427C0C830D10531F1C930D10524F41B
:201DA000C230D10531F50CC0CA30D10589F0C031D105F9F4C12CD12CE12CB8E0FB2E28C0CC
:201DC000C12CD12CE12CA0E4FA2E22C0CAE0D0E0FCECCF2EFCECDF2EFCECEF2EFCE0FF2E3C
:201DE00017C0C8E0D0E0C12CD12CE12CE0E1FE2E0FC09E01442737FD4095542F60E070E0DB
:201E000080E090E80E9473CEC901DA016C017D0120E030E040E050E060E03E01882477FC79
:201E20008094982C70EDB72EBA0CE9E0EB1570F48A2D81548A3118F499ECB92E06C08A2D59
:201E400081568A3150F589EAB82EBA0C8B2D90E08C179D0714F56F3FE1F0C216D306E406FA
:201E6000F506B0F0CA01B901A40193010E942DCE9B01AC012B0D311D411D511D2130F0E0B0
:201E80003F07F0E04F07F0E85F0710F461E001C06FEFF801A1908F01C5CF2114310481F00B
:201EA000662331F001501040F1011183008308C051FE1AC002501040F1011183008314C05E
:201EC00067FF12C050FC05C02FEF3FEF4FEF5FE704C020E030E040E050E882E290E09093C6
:201EE00000118093FF1016C050FE08C050954095309521953F4F4F4F5F4F0CC057FF0AC0C8
:201F000082E290E0909300118093FF102FEF3FEF4FEF5FE7B901CA01DF91CF911F910F9122
:201F2000FF90EF90DF90CF90BF90AF909F908F907F906F905F903F902F900895FB01DC01E8
:201F400005900D920020E1F70895FC0105900020E9F7809590958E0F9F1F0895FB01DC011B
:201F60004150504088F08D9181341CF08B350CF4805E659161341CF06B350CF4605E861BB5
:201F8000611171F3990B0895881BFCCFFB01DC014150504048F005900D920020C9F701C0B5
:201FA0001D9241505040E0F70895FB0155915523A9F0BF01DC014D9145174111E1F759F49C
:201FC000CD010590002049F04D9140154111C9F3FB014111EFCF81E090E001970895FB01F6
:201FE000DC0104C08D910190801921F441505040C8F7881B990B0895FB01DC0102C00190F3
:202000000D9241505040D8F70895FB01DC010D900020E9F7119701900D920020E1F70895B1
:20202000FC018191861721F08823D9F7992708953197CF010895FB01DC0101900D920020AD
:20204000E1F70895FB01DC014150504030F08D910190801919F40020B9F7881B990B0895E8
:20206000FB01DC014150504048F001900D920020C9F701C01D9241505040E0F70895AEE08B
:20208000B0E0E5E4F0E10C94D7CE0E891F898EE08C831A8309838FEF9FE79E838D839E0118
:2020A000265E3F4FCE010196688D798DA9010AD02F813885020F131FF80110822E96E4E066
:2020C0000C94F3CEABE0B0E0E8E6F0E10C94C9CE3C012B015A01FC0117821682838181FD3A
:2020E00003C06FEF7FEFB9C19AE0892E1E010894211C311CF3012381F20123FD859123FF7E
:2021000081912F01882309F4A5C1853239F423FD859123FF81912F01853221F490E0B30101
:20212000B7D1E8CF982FFF24EE249924FFE1FF15D0F09B3269F09C3228F4903259F0933213
:2021400091F40EC09D3249F0903369F441E024C052E0F52A84E0F82A28C098E0F92A25C0C0
:20216000E0E1FE2A22C0F7FC29C0892F80538A3070F4F6FE05C0989C902C1124980E15C0B6
:20218000E89CE02C1124E80EF0E2FF2A0EC09E3229F4F6FC5FC140E4F42A07C09C3619F4D4
:2021A00050E8F52A02C0983649F4F20123FD959123FF91912F01992309F0B8CF892F855481
:2021C000833018F08052833038F444E050E0A40EB51E5FE359830FC0933631F0933779F0B0
:2021E000933509F052C01FC0F5018081898342E050E0A40EB51E610101E010E011C0F50159
:20220000C080D180F6FC03C06FEF7FEF02C0692D70E042E050E0A40EB51EC6012ED18C01DA
:202220005FE7F52213C0F501C080D180F6FC03C06FEF7FEF02C0692D70E042E050E0A40EBA
:20224000B51EC6010FD18C0150E8F52AF3FE06C018C080E290E0B3011BD1EA948E2D90E076
:2022600008171907B0F30DC0F601F7FC8591F7FE81916F0190E0B3010BD1E110EA94015078
:2022800010400115110581F7E2C0943611F0993661F5F7FE08C0F50120813181428153811B
:2022A00084E090E00AC0F501808191819C01442737FD4095542F82E090E0A80EB91E9FE6FF
:2022C000F92257FF09C050954095309521953F4F4F4F5F4FE0E8FE2ACA01B901A1012AE094
:2022E00030E002D1D82ED2183FC0953729F41F2D1F7E2AE030E01DC01F2D197F9F3661F039
:20230000903720F4983509F0A5C00FC0903739F0983709F09FC004C028E030E00AC01061BA
:2023200014FD146020E130E004C014FD166020E132E017FF08C0F5016081718182819381EB
:2023400044E050E008C0F50180819181BC0180E090E042E050E0A40EB51EA101C5D0D82EB7
:20236000D2188FE7F82EF122F6FE0BC05EEFF522D91438F4F4FE07C0F2FC05C08FEEF82285
:2023800002C01D2D01C0192DF4FE0DC0FE01ED0DF11D8081803319F499EEF92208C01F5FBB
:2023A000F2FE05C003C08F2D867809F01F5F0F2DF3FC13C0F0FE0EC01E1510F09D2C0AC0F4
:2023C0009D2C9E0C911A1E2D05C080E290E0B3015FD01F5F1E15C8F304C01E1510F4E11AB8
:2023E00001C0EE2404FF0EC080E390E0B30150D002FF1BC001FD03C088E790E00EC088E5DB
:2024000090E00BC0802F867881F001FF02C08BE201C080E2F7FC8DE290E0B30139D005C0BD
:2024200080E390E0B30134D09A94D914C8F3DA94F101ED0DF11D808190E0B30129D0DD20B8
:20244000B1F705C080E290E0B30122D0EA94EE20C9F750CEF30166817781CB012B96E2E10A
:202460000C94E5CEFC010590615070400110D8F7809590958E0F9F1F0895FC0161507040A6
:2024800001900110D8F7809590958E0F9F1F08950F931F93CF93DF938C01EB018B8181FF6C
:2024A0001BC082FF0DC02E813F818C819D812817390764F4E881F9810193F983E88306C05E
:2024C000E885F985802F1995892B31F48E819F8101969F838E8302C00FEF1FEFC801DF91DB
:2024E000CF911F910F910895FA01AA27283051F1203181F1E8946F936E7F6E5F7F4F8F4F82
:202500009F4FAF4FB1E03ED0B4E03CD0670F781F891F9A1FA11D680F791F8A1F911DA11D40
:202520006A0F711D811D911DA11D20D009F468943F912AE0269F11243019305D3193DEF65F
:20254000CF010895462F4770405D4193B3E00FD0C9F7F6CF462F4F70405D4A3318F0495D7E
:2025600031FD4052419302D0A9F7EACFB4E0A6959795879577956795BA95C9F70097610571
:20258000710508959B01AC010A2E06945795479537952795BA95C9F7620F731F841F951F54
:2025A000A01D0895FC01128213820895FC018381882311F081E082830895FC0182818111BC
:2025C00012820895CF93DF93DC01A95ABF4F8C91A755B0408250823050F1ED01CC5ADF4FF8
:2025E000FD01ED58FF4F8BE1019009928150E1F7FD01EE5AFF4FAF58BF4F8D919C9111976D
:20260000A157B04091838083ED01CD58DF4FFD01EE56FF4F8BE1019009928150E1F7A057B2
:20262000BF4F8D919C9111975F978D939C93DF91CF910895FC0184E294E0918380838781F1
:20264000882321F0CF0104960C94466008950F931F93CF93DF938C010E940D6E0E94EA6DA6
:20266000C8018C529F4F0E944660F80112828FE291E00E94FF4480918908882301F1109248
:20268000890880914306C82FD0E0CC0FDD1FC353D04F68817981882777FD8095982F0E9418
:2026A0001DCB209161033091620340916303509164030E9489CC181614F419821882DF91A6
:2026C000CF911F910F910895CF92DF92EF92FF920F931F93DF93CF93CDB7DEB76F970FB6BD
:2026E000F894DEBF0FBECDBF8C016B01095A1F4FD8018C9107551040882321F42FE2E22E0B
:20270000F12C03C090E5E92EF12CE00EF11E84E294E09A8389831C821B8218861D82B70100
:202720006C5F7F4FCE010596A60121E00E943267882391F5EBE3F1E0949108C08091C00025
:2027400085FFFCCF9093C600319694919923B1F7E1E4F1E0949108C08091C00085FFFCCF4E
:202760009093C600319694919923B1F709C08091C00085FFFCCF0894C11CD11C9093C600E8
:20278000F6019081992399F78091C00085FFFCCF8AE08093C6003CC0D801AE56BF4FF801A2
:2027A000ED58FF4F8BE101900D928150E1F7F801E057FF4F0F581F4FD8018D919C91015772
:2027C000104091838083D801AD58BF4FF70134968BE101900D928150E1F70F581F4FF701D2
:2027E00082819381D8018D939C9301571040D801AC5ABF4FFE0135968BE101900D928150CE
:20280000E1F70E5A1F4F8B819C81F80191838083CE0101960FDF6F960FB6F894DEBF0FBEBD
:20282000CDBFCF91DF911F910F91FF90EF90DF90CF900895EF92FF920F931F938C0134ED5F
:20284000E32EF12CE80EF91EC7010E94F75FC7010E944660F801108211821F910F91FF9070
:20286000EF9008950F931F93FC0113AA16AA12AA11AA24E234E030AB27A7EC5AFF4F10820E
:202880003396108235971182108232932293B39610823396108235971182108232932293D1
:2028A000B39610823396108235971182108232932293B09689E180833396108278961082C9
:2028C0003B96108233961082359711821082329322937F961082118212821382389610820C
:2028E000118212821382E75FF04012821382108211828F010D501F4FD8011D921D921D9217
:202900001C921397E550FF4F81E08083EB5FF04016A615A60E9418C368577C4E8F4F9F4FB5
:20292000F80160837183828393831F910F910895CF92DF92EF92FF920F931F93CF93DF93B3
:202940007C016B01DB010D900020E9F78D0101501040061B170BE4EDF0E0EE0EFF1ED70111
:202960001C92ECE2FFEFEE0EFF1ECB016EE470E057DBEC01009731F4F8013197EC0DFD1DB7
:2029800086010CC060E270E04BDB8C010F5F1F4FCE016AE270E044DBFC0131978DE0818303
:2029A0008AE082831382C70180539F4FB8010E942B6884ED90E0E80EF91ED7018C9188230E
:2029C00019F1EBE6F1E0949108C08091C00085FFFCCF9093C600319694919923B1F7E2E73C
:2029E000F1E0949108C08091C00085FFFCCF9093C600319694919923B1F78091C00085FF6B
:202A0000FCCF8AE08093C600DF91CF911F910F91FF90EF90DF90CF900895CF93DF93EC014E
:202A20008B81882309F43BC0EAE9F1E0949108C08091C00085FFFCCF9093C6003196949161
:202A40009923B1F7C950DF4F488159816A817B81C75FD04082E095E02AE030E00E94AB24A9
:202A6000E8E9F1E0949108C08091C00085FFFCCF9093C600319694919923B1F7C151DF4F2E
:202A8000488159816A817B8182E095E02AE030E00E94AB248091C00085FFFCCF12C0E8E888
:202AA000F1E0949108C08091C00085FFFCCF9093C600319694919923B1F78091C00085FFAA
:202AC000FCCF8AE08093C600DF91CF9108952F923F924F925F926F927F928F929F92AF9272
:202AE000BF92CF92DF92EF92FF920F931F93DF93CF93CDB7DEB7AC970FB6F894DEBF0FBE62
:202B0000CDBF5C014B01FC018381882309F434C1C5018C529F4F0E944660F50112821A8ADA
:202B20001D8A198A188A84E294E09F878E875EE4C52ED12CCA0CDB1C2FE230E0A20EB31EF3
:202B4000F601B182A08221ED3FEFA20EB31EF40180818F3209F08DC0C4016FE270E060DACF
:202B60007C010894E11CF11C3E010894611C711C260142E1242E312C2C0E3D1E75C0C701C2
:202B80006FE270E04DDA6C01009709F480C0E816F90608F07CC08C010E191F09C301B701A3
:202BA000A8015EDA060D171DF8011082F30107C08091C00085FFFCCF31969093C6009081C6
:202BC0009923B1F78091C00085FFFCCFFAE0F093C600F201608171816115710519F460E04F
:202BE00070E002C06C5F7F4FC101A30121E00E943267882371F5E6EDF1E0949108C08091D5
:202C0000C00085FFFCCF9093C600319694919923B1F7FE01319607C08091C00085FFFCCFBF
:202C200031969093C60090819923B1F7E4EDF1E0949108C08091C00085FFFCCF9093C600D7
:202C4000319694919923B1F78091C00085FFFCCF8DC02EE030E02C0F3D1FF20131832083B8
:202C600076010894E11CF11CE114F10409F087CF0BC080E590E0A80EB91EF601B182A08285
:202C800020EB3FEFA20EB31ED82C092D02C0DE2C0F2D8EE490E0A80EB91EF50180819181C0
:202CA00022EB3FEFA20EB31E009719F480E090E001C004966D2D702F0E94FE67882339F174
:202CC000E6ECF1E0949108C08091C00085FFFCCF9093C600319694919923B1F78D2D902F92
:202CE0009C01F90107C08091C00085FFFCCF31969093C60090819923B1F787EF90E0A80E95
:202D0000B91EF501108211821282138232C0EEEAF1E0949108C08091C00085FFFCCF9093CD
:202D2000C600319694919923B1F78D2D902F9C01F90107C08091C00085FFFCCF319690939C
:202D4000C60090819923B1F7ECEAF1E0949108C08091C00085FFFCCF9093C60031969491AF
:202D60009923B1F78091C00085FFFCCF8AE08093C600CE010E965EDCAC960FB6F894DEBFAF
:202D80000FBECDBFCF91DF911F910F91FF90EF90DF90CF90BF90AF909F908F907F906F90F4
:202DA0005F904F903F902F9008952F923F924F925F926F927F928F929F92AF92BF92CF925F
:202DC000DF92EF92FF920F931F93DF93CF93CDB7DEB7AD970FB6F894DEBF0FBECDBF5C0147
:202DE0004B014DA7FC018381882309F4E4C174ED472E512C4A0C5B1CC2010E944660F50124
:202E000012821A8A1D8A198A188A84E294E09F878E876EE4C62ED12CCA0CDB1C8FE290E088
:202E2000A80EB91EF601B182A08281ED9FEFA80EB91EF40180818F3209F089C0C4016FE221
:202E400070E0EED87C010894E11CF11C3E010894611C711C160176C0C7016FE270E0E0D8E6
:202E60006C01009709F481C0E816F90608F07DC08C010E191F09C301B701A801F1D8060D01
:202E8000171DF8011082F30107C08091C00085FFFCCF31969093C60090819923B1F7809162
:202EA000C00085FFFCCFFAE0F093C600F101608171816115710519F460E070E002C06C5F05
:202EC0007F4FCE014296A30121E00E943267882371F5EEE4F2E0949108C08091C00085FFA6
:202EE000FCCF9093C600319694919923B1F7FE01319607C08091C00085FFFCCF3196909337
:202F0000C60090819923B1F7ECE4F2E0949108C08091C00085FFFCCF9093C60031969491F2
:202F20009923B1F78091C00085FFFCCF15C18EE090E08C0F9D1FF1019183808376010894E6
:202F4000E11CF11CE114F10409F086CF0BC0E0E5F0E0AE0EBF1EF601B182A08280EB9FEFF1
:202F6000A80EB91E082DF92C01C00E2DF501E25BFF4F9DA5992309F4ADC06081718161153C
:202F8000710519F460E070E002C06C5F7F4FC201402F5F2D21E00E943267882309F46AC0F7
:202FA000E5EEF0E0AE0EBF1EF50140815181628173818AE090E0A80EB91EF5014083518381
:202FC0006283738381E19FEFA80EB91EEEE3F2E0949108C08091C00085FFFCCF9093C60000
:202FE000319694919923B1F7802F9F2D9C01F90107C08091C00085FFFCCF31969093C600D8
:2030000090819923B1F7E6E3F2E0949108C08091C00085FFFCCF9093C60031969491992302
:20302000B1F782E095E02AE030E00E94AB248091C00085FFFCCF8AE08093C600E7EFF0E07D
:20304000AE0EBF1EF5011082118212821382E8E2F2E0949108C08091C00085FFFCCF9093C7
:20306000C600319694919923B1F78091C00085FFFCCF97C0E4E1F2E0949108C08091C0006E
:2030800085FFFCCF9093C600319694919923B1F7802F9F2D9C01F90107C08091C00085FF7A
:2030A000FCCF31969093C60090819923B1F7E2E1F2E0949108C08091C00085FFFCCF90935B
:2030C000C600319694919923B1F78091C00085FFFCCF42C0608171816115710519F460E0AC
:2030E00070E002C06C5F7F4FC201402F5F2D26E50E943267882309F033C0EEEFF1E09491B7
:2031000008C08091C00085FFFCCF9093C600319694919923B1F7802F9F2D9C01F90107C0B5
:203120008091C00085FFFCCF31969093C60090819923B1F7ECEFF1E0949108C08091C000E0
:2031400085FFFCCF9093C600319694919923B1F78091C00085FFFCCF8AE08093C60028C09C
:2031600081E0F5018083EAEEF1E0949108C08091C00085FFFCCF9093C600319694919923AE
:20318000B1F7F40107C08091C00085FFFCCF31969093C60090819923B1F78091C00085FF31
:2031A000FCCF8AE08093C600802F9F2D0E94A4BCCE010E963FDAAD960FB6F894DEBF0FBEFA
:2031C000CDBFCF91DF911F910F91FF90EF90DF90CF90BF90AF909F908F907F906F905F908E
:2031E0004F903F902F900895FC0181E08183CF0140E0DBCDEF92FF920F931F93CF93DF9391
:203200008C01FC01138286A9882321F0C801C3960E944660EDEAEE2EF12CE00EF11EC70165
:2032200060E045E30E94F35D882309F5EBE3F1E0949108C08091C00085FFFCCF9093C600F6
:20324000319694919923B1F7E0E9F2E0949108C08091C00085FFFCCF9093C60031969491A1
:203260009923B1F78091C00085FFFCCF7DC0E801CE54DF4FCE01B70141E00E94BC6888233B
:2032800041F5CE01B70140E00E94BC68882309F5EBE6F1E0949108C08091C00085FFFCCF33
:2032A0009093C600319694919923B1F7EDE7F2E0949108C08091C00085FFFCCF9093C60039
:2032C000319694919923B1F78091C00085FFFCCF4BC0C801C396BE010E943863882309F5AC
:2032E000EBE6F1E0949108C08091C00085FFFCCF9093C600319694919923B1F7EDE6F2E041
:20330000949108C08091C00085FFFCCF9093C600319694919923B1F78091C00085FFFCCF47
:2033200023C081E0F8018383EBE3F1E0949108C08091C00085FFFCCF9093C60031969491C9
:203340009923B1F7E2E6F2E0949108C08091C00085FFFCCF9093C600319694919923B1F729
:203360008091C00085FFFCCF8AE08093C600D801AC5ABF4FF801F3968BE101900D9281500E
:20338000E1F7F80181A992A90E5A1F4FF8019183808302551040C8018F96025B1F4FF801B8
:2033A00091838083DF91CF911F910F91FF90EF9008952F923F924F925F926F927F929F9284
:2033C000AF92BF92CF92DF92EF92FF920F931F93DF93CF93CDB7DEB7CC55D0400FB6F894B4
:2033E000DEBF0FBECDBF6C01662311F52BEF30E0C20ED31ED6018C91E5E0FFEFCE0EDF1E70
:20340000882309F4E3C023EF30E0C20ED31ED601ED90FD900D911C91EDE0FFEFCE0EDF1EBE
:203420000E9418C3E616F7060807190708F4CEC02BEF30E0C20ED31ED6011C92E5E0FFEF3A
:20344000CE0EDF1ED60113968C91882339F4C601D1DEF6018381882309F4B8C000D000D0ED
:20346000EDB7FEB731967E010894E11CF11CADB7BEB71296FC92EE92119782E691E09383E1
:203480008283D6019D968D919C919E97958384830E943F108701EDB7FEB736960FB6F8948F
:2034A000FEBF0FBEEDBF57010AC0D8018C91992787FD90950E94BECEF80181938F01F50194
:2034C00001900020E9F73197EA19FB09802F8E198E175CF313E3A12EB12CAC0CBD1CC50149
:2034E00040E050E060E070E00E942D5F9924BDE3EB2EF12CEC0EFD1E2E010894411C511C81
:20350000AFE16A2E712C6C0E7D1EFBE52F2EF1E03F2E42C0D8018C9190E00E94BECEF801C7
:2035200081938F01D7010D900020E9F71197AE19BF09802F8E198A176CF327968FAD27972E
:203540008E3751F1C701B20145E050E00E942210009711F500D000D0EDB7FEB73196ADB7FF
:20356000BEB712967C926E92119733822282558244820E943F10EDB7FEB736960FB6F8941B
:20358000FEBF0FBEEDBFC3010E94784587E591E00E94FF4499249394C501B70140E050E05E
:2035A0000E945762181614F48701BCCF992041F48FEF9FEFD6019E969C938E939D9706C018
:2035C000F60185A596A5019696A785A7C45ADF4F0FB6F894DEBF0FBECDBFCF91DF911F917C
:2035E0000F91FF90EF90DF90CF90BF90AF909F907F906F905F904F903F902F9008952F92CA
:203600003F924F925F926F927F928F929F92AF92BF92CF92DF92EF92FF920F931F93DF9367
:20362000CF93CDB7DEB7CF58D0400FB6F894DEBF0FBECDBF8C013B016A0184E090E0C80EB3
:20364000D91EF8017196C757DF4FF983E883C958D040C8010496CA57DF4F99838883C65818
:20366000D040C857DF4F1882C858D04046E6E42EF12CEC0EFD1EF7013B96C557DF4FF98324
:20368000E883CB58D0403CEF832E912C800E911E2EEFA22EB12CA00EB11E9EE0292E312C3D
:2036A0002C0E3D1E87E4482E512C4C0E5D1EC2010496C357DF4F99838883CD58D040EBE373
:2036C000F1E09491C157DF4F9883CF58D0404EC1F7018385482F50E0BA01687170706031A1
:2036E000710509F051C1F401208131812130310509F44AC12230310509F446C1F701DE010F
:2037000011969081903239F08E2F8E19883011F48EE28D939D933196C557DF4F88819981F1
:20372000CB58D040E817F90761F71C921E86F3018081882329F4C10160E072E00E940510E5
:20374000C101B3010E940510C101BE016F5F7F4F0E940510C10160E072E00E9405101CA69B
:203760001FA61BA61AA684E294E099A788A7CE018C96B601AE014F5F5F4F21E00E943267CB
:20378000882309F03FC0F40180819181892BD1F5C157DF4F9881CF58D040EBE3F1E008C007
:2037A0008091C00085FFFCCF9093C600319694919923B1F7E2E0F2E007C08091C00085FF00
:2037C000FCCF31969093C60090819923B1F78091C00085FFFCCFFAE0F093C600FE013196F0
:2037E00007C08091C00085FFFCCF31969093C60090819923B1F78091C00085FFFCCF8AE033
:203800008093C600C357DF4FA881B981CD58D040FE01BC968BE101900D928150E1F78AA52A
:203820009BA5F2019383828384E294E091838083C801B101A201E3DEC2010E941A13CE0109
:2038400088960E941A1392C0953E09F48FC09E3209F48CC09F3509F489C0F8019189992308
:2038600031F09E3209F482C09F3509F47FC043FD7DC080E06031710509F481E0F80184A7A2
:20388000882349F4F7018085873409F06FC081858E3709F46BC0CA57DF4FA881B981C6589D
:2038A000D040F7018081803241F08E2F8E19883011F48EE28D9380818D933196C557DF4F39
:2038C00088819981CB58D040E817F90759F71C92F40180819181009729F5F30107C080910C
:2038E000C00085FFFCCF31969093C60090819923B1F7CA57DF4FE881F981C658D04007C06D
:203900008091C00085FFFCCF31969093C60090819923B1F78091C00085FFFCCFFAE0F093E5
:20392000C60024C08130910539F4F501808191810196918380831AC00297C1F4C857DF4F3D
:20394000F881C858D0402F2F30E0F5018081918128173907F1F0C857DF4FF881C858D040F1
:20396000FF5FC857DF4FF883C858D040C601B701C757DF4F48815981C958D0400E945762F7
:2039800018160CF4A5CE05C0F7019081992309F05BCFC157DF4F0FB6F894DEBF0FBECDBF4C
:2039A000CF91DF911F910F91FF90EF90DF90CF90BF90AF909F908F907F906F905F904F9053
:2039C0003F902F900895EF92FF920F931F93DF93CF93CDB7DEB76F970FB6F894DEBF0FBEA8
:2039E000CDBF7C018C01025B1F4F805B9F4FF801918380832CEF30E0E20EF31E21E030E050
:203A0000F701219331937F011182108222E03FEFE20EF31E049640E050E060E070E00E9444
:203A20002D5FF80120813181DE011596F90134968BE101900D928150E1F7F901828193810A
:203A40009C838B8384E294E09A838983C70165E172E08E010F5F1F4FA801D1DDC8010E94A9
:203A60001A13F701E250FF4F808191816F960FB6F894DEBF0FBECDBFCF91DF911F910F9122
:203A8000FF90EF900895EF92FF920F931F93DF93CF93CDB7DEB76F970FB6F894DEBF0FBE67
:203AA000CDBF7C018C01025B1F4F805B9F4FF801918380832CEF30E0E20EF31E22E030E08E
:203AC000F7013183208324E03FEFE20EF31EF701E250FF4F60831182049640E050E060E04C
:203AE00070E00E942D5FF80120813181DE011596F90134968BE101900D928150E1F7F9016F
:203B0000828193819C838B8384E294E09A838983C70165E172E08E010F5F1F4FA8016FDD9E
:203B2000C8010E941A136F960FB6F894DEBF0FBECDBFCF91DF911F910F91FF90EF900895D6
:203B4000EF92FF920F931F93DF93CF93CDB7DEB76F970FB6F894DEBF0FBECDBF7C018CEFCD
:203B600090E0E80EF91EF7011182108284E09FEFE80EF91E87010D5C1F4FC80140E050E034
:203B800060E070E00E942D5FDE011596F8018BE101900D928150E1F7F70181A992A99C8323
:203BA0008B8384E294E09A838983C70165E172E08E010F5F1F4FA80122DDC8010E941A13E9
:203BC0006F960FB6F894DEBF0FBECDBFCF91DF911F910F91FF90EF900895DF93CF93CDB776
:203BE000DEB728970FB6F894DEBF0FBECDBF8091160290911702A0911802B0911902898314
:203C00009A83AB83BC83FE01319684E690E02081F999FECF1FBA92BD81BD20BD0FB6F894E6
:203C2000FA9AF99A0FBE01968836910511F03196EECFEDE2F8E02081F999FECF1FBA92BD51
:203C400081BD20BD0FB6F894FA9AF99A0FBE01968837910511F03196EECFEDE1F8E020814C
:203C6000F999FECF1FBA92BD81BD20BD0FB6F894FA9AF99A0FBE01968838910511F03196A8
:203C8000EECFEDE3F8E02081F999FECF1FBA92BD81BD20BD0FB6F894FA9AF99A0FBE0196A0
:203CA0008839910511F03196EECFE1E5F8E02081F999FECF1FBA92BD81BD20BD0FB6F894F6
:203CC000FA9AF99A0FBE01968C39910511F03196EECFE5E5F8E02081F999FECF1FBA92BDAF
:203CE00081BD20BD0FB6F894FA9AF99A0FBE0196803A910511F03196EECFEDE4F8E02081AE
:203D0000F999FECF1FBA92BD81BD20BD0FB6F894FA9AF99A0FBE0196843A910511F0319609
:203D2000EECFE5E6F8E02081F999FECF1FBA92BD81BD20BD0FB6F894FA9AF99A0FBE019604
:203D4000883A910511F03196EECFE9E1F8E02081F999FECF1FBA92BD81BD20BD0FB6F89450
:203D6000FA9AF99A0FBE01968C3A910511F03196EECFE9E5F8E02081F999FECF1FBA92BD09
:203D800081BD20BD0FB6F894FA9AF99A0FBE0196803B910511F03196EECFEDE5F8E020810B
:203DA000F999FECF1FBA92BD81BD20BD0FB6F894FA9AF99A0FBE0196843B910511F0319668
:203DC000EECFE1E6F8E02081F999FECF1FBA92BD81BD20BD0FB6F894FA9AF99A0FBE019668
:203DE000883B910511F03196EECFEBE1F6E02081F999FECF1FBA92BD81BD20BD0FB6F894AF
:203E0000FA9AF99A0FBE0196843C910511F03196EECFEAE6F0E12081F999FECF1FBA92BD73
:203E200081BD20BD0FB6F894FA9AF99A0FBE0196863C910511F03196EECFECE6F0E120816A
:203E4000F999FECF1FBA92BD81BD20BD0FB6F894FA9AF99A0FBE0196883C910511F03196C2
:203E6000EECFEEE6F0E12081F999FECF1FBA92BD81BD20BD0FB6F894FA9AF99A0FBE0196C1
:203E80008A3C910511F03196EECFE0E7F0E12081F999FECF1FBA92BD81BD20BD0FB6F89415
:203EA000FA9AF99A0FBE01968C3C910511F03196EECFE2E7F0E12081F999FECF1FBA92BDD2
:203EC00081BD20BD0FB6F894FA9AF99A0FBE01968E3C910511F03196EECFE4E7F0E12081C9
:203EE000F999FECF1FBA92BD81BD20BD0FB6F894FA9AF99A0FBE0196803D910511F0319629
:203F0000EECFEEE6F3E02081F999FECF1FBA92BD81BD20BD0FB6F894FA9AF99A0FBE01961E
:203F2000843D910511F03196EECFE2E7F3E02081F999FECF1FBA92BD81BD20BD0FB6F89475
:203F4000FA9AF99A0FBE0196883D910511F03196EECFE6E7F3E02081F999FECF1FBA92BD2E
:203F600081BD20BD0FB6F894FA9AF99A0FBE8B3D910519F001963196EECF80911A02909111
:203F80001B02A0911C02B0911D028D839E83AF83B887FE01359684E690E02081F999FECF0F
:203FA0001FBA92BD81BD20BD0FB6F894FA9AF99A0FBE8736910519F001963196EECFEDE92C
:203FC000F2E0949108C08091C00085FFFCCF9093C600319694919923B1F7EFEDF2E09491F6
:203FE00008C08091C00085FFFCCF9093C600319694919923B1F78091C00085FFFCCF8AE016
:204000008093C60028960FB6F894DEBF0FBECDBFCF91DF910895EF92FF920F931F93DF937D
:20402000CF93CDB7DEB7E0970FB6F894DEBF0FBECDBFDE011196ECECF3E080E101900D9285
:204040008150E1F7DE015196ECEBF3E080E101900D928150E1F7DE019196ECEAF3E080E1FD
:2040600001900D928150E1F789819A81AB81BC8180932D0890932E08A0932F08B093300853
:2040800089899A89AB89BC8980931D0890931E08A0931F08B093200889A19AA1ABA1BCA11E
:2040A00080933D0890933E08A0933F08B09340088D819E81AF81B8858093310890933208F7
:2040C000A0933308B09334088D899E89AF89B88D8093210890932208A0932308B0932408E3
:2040E0008DA19EA1AFA1B8A58093410890934208A0934308B093440889859A85AB85BC8532
:204100008093350890933608A0933708B0933808898D9A8DAB8DBC8D8093250890932608AA
:20412000A0932708B093280889A59AA5ABA5BCA58093450890934608A0934708B0934808A6
:204140008D859E85AF85B8898093390890933A08A0933B08B0933C088D8D9E8DAF8DB8A125
:204160008093290890932A08A0932B08B0932C088DA59EA5AFA5B8A98093490890934A08C6
:20418000A0934B08B0934C080E94964A80E090E0AAEFB3E48093510890935208A093530809
:2041A000B093540880E090E0A1E6B4E48093550890935608A0935708B093580820E030E03B
:2041C00040E050E020934D0830934E0840934F085093500880E29EE4A0E0B0E080931908E1
:2041E00090931A08A0931B08B0931C08209365083093660840936708509368080F2EF0E0CA
:20420000EF2EF0E0FF2EF0EA0F2FF0E41F2FF02DE0925908F0925A0800935B0810935C0879
:204220008DEC9CECACECBDE380935D0890935E08A0935F08B0936008E0926108F092620838
:2042400000936308109364082093230630932406409325065093260620931F0630932006BA
:20426000409321065093220620931B0630931C0640931D0650931E0684EB90E090936B1006
:2042800080936A1086E490E090936D1080936C102FEF30E030936F1020936E1080EF90E008
:2042A000909371108093701084E690E0909373108093721030937510209374108BE794E14C
:2042C000A5E6B2E480936E0390936F03A0937003B09371036AE979E981E990E40E940F778C
:2042E0006093720370937303809374039093750366EF78E284E393E40E941B77609376038B
:204300007093770380937803909379030E94F67580E090E0A0E8BFE380937A0390937B03BB
:20432000A0937C03B0937D03EDE9F2E0949108C08091C00085FFFCCF9093C600319694917E
:204340009923B1F7E3EAF2E0949108C08091C00085FFFCCF9093C600319694919923B1F714
:204360008091C00085FFFCCF8AE08093C600E0960FB6F894DEBF0FBECDBFCF91DF911F919D
:204380000F91FF90EF9008950F931F93DF93CF93CDB7DEB728970FB6F894DEBF0FBECDBF8B
:2043A00080911A0290911B02A0911C02B0911D028D839E83AF83B887FE01319604E610E0A1
:2043C000F999FECF12BD01BDF89A80B580830F5F1F4F0836110511F03196F2CFCE01059604
:2043E000BE016F5F7F4F43E050E00E942210009709F078C1EDE2F8E0F999FECF12BD01BDDF
:20440000F89A80B580830F5F1F4F0837110511F03196F2CFEDE1F8E0F999FECF12BD01BD86
:20442000F89A80B580830F5F1F4F0838110511F03196F2CFEDE3F8E0F999FECF12BD01BD63
:20444000F89A80B580830F5F1F4F0839110511F03196F2CF0E94964AE1E5F8E0F999FECF57
:2044600012BD01BDF89A80B580830F5F1F4F0C39110511F03196F2CFE5E5F8E0F999FECF24
:2044800012BD01BDF89A80B580830F5F1F4F003A110511F03196F2CFEDE4F8E0F999FECF08
:2044A00012BD01BDF89A80B580830F5F1F4F043A110511F03196F2CFE5E6F8E0F999FECFEA
:2044C00012BD01BDF89A80B580830F5F1F4F083A110511F03196F2CFE9E1F8E0F999FECFC7
:2044E00012BD01BDF89A80B580830F5F1F4F0C3A110511F03196F2CFE9E5F8E0F999FECF9F
:2045000012BD01BDF89A80B580830F5F1F4F003B110511F03196F2CFEDE5F8E0F999FECF85
:2045200012BD01BDF89A80B580830F5F1F4F043B110511F03196F2CFE1E6F8E0F999FECF6C
:2045400012BD01BDF89A80B580830F5F1F4F083B110511F03196F2CFEBE1F6E0F999FECF45
:2045600012BD01BDF89A80B580830F5F1F4F043C110511F03196F2CFEAE6F0E1F999FECF29
:2045800012BD01BDF89A80B580830F5F1F4F063C110511F03196F2CFECE6F0E1F999FECF05
:2045A00012BD01BDF89A80B580830F5F1F4F083C110511F03196F2CFEEE6F0E1F999FECFE1
:2045C00012BD01BDF89A80B580830F5F1F4F0A3C110511F03196F2CFE0E7F0E1F999FECFCC
:2045E00012BD01BDF89A80B580830F5F1F4F0C3C110511F03196F2CFE2E7F0E1F999FECFA8
:2046000012BD01BDF89A80B580830F5F1F4F0E3C110511F03196F2CFE4E7F0E1F999FECF83
:2046200012BD01BDF89A80B580830F5F1F4F003D110511F03196F2CFEEE6F3E0F999FECF65
:2046400012BD01BDF89A80B580830F5F1F4F043D110511F03196F2CFE2E7F3E0F999FECF4C
:2046600012BD01BDF89A80B580830F5F1F4F083D110511F03196F2CFE6E7F3E0F999FECF24
:2046800012BD01BDF89A80B580830B3D110521F00F5F1F4F3196F2CF0E94F675EDE9F2E03B
:2046A000949108C08091C00085FFFCCF9093C600319694919923B1F7E5ECF2E0949108C024
:2046C0008091C00085FFFCCF9093C600319694919923B1F78091C00085FFFCCF8AE08093E4
:2046E000C60001C098DC28960FB6F894DEBF0FBECDBFCF91DF911F910F9108951F920F92AB
:204700000FB60F920BB60F9211242F933F934F938F939F93EF93FF934091C600E091FE04B4
:20472000F091FF0431969F012F773070319780910005909101052817390739F0E258FB4F17
:2047400040833093FF042093FE04FF91EF919F918F914F913F912F910F900BBE0F900FBE77
:204760000F901F9018959A01AB01203081EE380780E0480780E0580749F182E08093C0001C
:2047800060E079E08DE390E00E9495CE2150304040405040CA01B90122E030E040E050E0C3
:2047A0000E9495CE3093C5002093C4008091C10080618093C1008091C10088608093C100E0
:2047C0008091C10080688093C10008951092C00020E130E0E7CF20910005309101058091F7
:2047E000FE049091FF048217930719F42FEF3FEF0EC0F901E258FB4F80812F5F3F4F2F77F8
:2048000030703093010520930005282F30E0C901089580910005909101059093FF04809333
:20482000FE04089508952F923F924F925F926F927F928F929F92AF92BF92CF92DF92EF928F
:20484000FF920F931F93DF93CF93CDB7DEB7A0970FB6F894DEBF0FBECDBF1C016A017B0104
:20486000411551056105710541F440E350E060E070E020E030E08BD055C08824992454015A
:20488000422E55246624772401E010E00C0F1D1F080D191DC701B601A30192010E9473CEFE
:2048A000F80160830894811C911CA11CB11CC701B601A30192010E9473CEC901DA016C0101
:2048C0007D01C114D104E104F104F1F681E0E82EF12CEC0EFD1EE80CF91C3E010894611CE5
:2048E000711CD501C4010197A109B1096C01C818D90815C0F601EE0DFF1D40814A3010F444
:20490000405D01C0495C552747FD5095652F752FC10120E030E03BD00894E108F1086E14DA
:204920007F0441F7A0960FB6F894DEBF0FBECDBFCF91DF911F910F91FF90EF90DF90CF9043
:20494000BF90AF909F908F907F906F905F904F903F902F9008952115310539F48091C0000A
:2049600085FFFCCF4093C60008955DCFEF92FF920F931F939A01E62EFF2400E010E0B801C5
:20498000A701E9DF1F910F91FF90EF900895EF92FF920F931F93CF93DF93EC017A018B017E
:2049A0002115310539F48091C00085FFFCCFE092C60019C02A303105A9F477FF0FC04DE28C
:2049C00050E060E070E020E030E0E1DF10950095F094E094E11CF11C011D111DCE01B80137
:2049E000A7012AE020DFDF91CF911F910F91FF90EF900895EF92FF920F931F937B019A01BE
:204A00000027F7FC0095102FB801A701C0DF1F910F91FF90EF9008950F931F938C014DE09F
:204A200050E060E070E020E030E0B1DFC8014AE050E060E070E020E030E0A9DF1F910F917B
:204A40000895CF92DF92EF92FF920F931F938C019A016B01EE24FF24B701A6017CDFC80135
:204A6000DBDF1F910F91FF90EF90DF90CF9008959F92AF92BF92CF92DF92EF92FF920F936A
:204A80001F93CF93DF93EC017A018B01922ECB01BA0120E030E040E050E00E947BCA882363
:204AA00064F4CE014DE250E060E070E020E030E06EDF17FB109517F9109520E030E040E0E7
:204AC0005FE3AA240BC0CA01B90120E030E040E251E40E9482CA9B01AC01A394A91498F359
:204AE000C801B7010E94A2C97B018C010E94EFCA5B016C010E941BCB9B01AC01C801B701A9
:204B00000E94A1C97B018C01CE01B601A5012AE030E021DF992099F1EEE1F2E007C080917E
:204B2000C00085FFFCCF31969093C60090819923B1F725C0C801B70120E030E040E251E474
:204B40000E945BCD7B018C010E94EACA5B016C01CC24B7FCC094DC2CCE01B601A5012AE02E
:204B600030E015DFC601B5010E941DCB9B01AC01C801B7010E94A1C97B018C019A94992064
:204B8000C9F6DF91CF911F910F91FF90EF90DF90CF90BF90AF909F9008956ACF0895EF92A9
:204BA000FF920F931F93CF93DF93EC01E0902706F09028060091290610912A066881798190
:204BC0008A819B81A80197010E947BCA882324F4E882F9820A831B83E0902B06F0902C0660
:204BE00000912D0610912E066C817D818E819F81A80197010E947BCA882324F4EC82FD822A
:204C00000E831F83E0902F06F09030060091310610913206688579858A859B85A80197010A
:204C20000E947BCA882324F4E886F9860A871B87E0904803F090490300914A0310914B0356
:204C4000688179818A819B81A80197010E9489CC181624F4E882F9820A831B83E0904C03FD
:204C6000F0904D0300914E0310914F036C817D818E819F81A80197010E9489CC181624F4F7
:204C8000EC82FD820E831F83E0905003F09051030091520310915303688579858A859B8566
:204CA000A80197010E9489CC181624F4E886F9860A871B87DF91CF911F910F91FF90EF9028
:204CC000089580914E0608958130910541F46F5F7F4F09F051C083E095E00C943214892BA1
:204CE00009F04AC06F5F7F4F09F046C084E294E09093D4058093D3058091DA05882321F0A9
:204D000087ED95E00E94466084E294E0909392058093910580919805882321F085E995E0D8
:204D20000E94466084E294E0909373058093720580917905882321F086E795E00E944660B7
:204D400084E294E0909354058093530580915A05882321F087E595E00E94466084E294E063
:204D6000909333058093320580913905882321F086E395E00C944660089580E090E06FEF94
:204D80007FEFA2CF81E090E06FEF7FEF9DCF0E94EB7680914E06882309F03AC081E08093B1
:204DA0004E068091500690915106A0915206B09153068093540690935506A0935606B093E0
:204DC0005706E5EFF2E0949108C08091C00085FFFCCF9093C600319694919923B1F7E6E0C4
:204DE000F3E0949108C08091C00085FFFCCF9093C600319694919923B1F78091C00085FF45
:204E0000FCCF8AE08093C6008CEF92E00C9482BC089589E260E00E94C9C4A09A0895F894DF
:204E20000E94EB765F9A8A9A8FB7F894909108019160909308018FBF129A479A8CE060E0B2
:204E40000E94C9C4E5EFF2E0949108C08091C00085FFFCCF9093C600319694919923B1F737
:204E6000E5E8F3E0949108C08091C00085FFFCCF9093C600319694919923B1F78091C0007B
:204E800085FFFCCF8AE08093C6008CE793E00E9491BCFFCF0E9418C36093580670935906AD
:204EA00080935A0690935B06E0918106F0918206ED57F94F80818823A9F4E4EAF3E094915F
:204EC00008C08091C00085FFFCCF9093C600319694919923B1F78091C00085FFFCCF8AE027
:204EE0008093C6000895EF92FF920F931F930E9418C3E0905C06F0905D0600915E0610910E
:204F00005F06209158063091590640915A0650915B06621B730B840B950BE616F706080758
:204F2000190730F4E114F1040105110509F077DF8091540390915503A0915603B0915703D2
:204F40000097A105B10569F10E9418C3209158063091590640915A0650915B06621B730BEA
:204F6000840B950B20915403309155034091560350915703261737074807590790F49091AD
:204F80005A0D80915B0D981761F45F9A8A9A9FB7F894809108018160809308019FBF129A0D
:204FA000479A909901C03BDF0E94034D1F910F91FF90EF9008956F927F928F929F92AF927A
:204FC000BF92CF92DF92EF92FF920F931F93F82E6091600670916106809162069091630660
:204FE000209164063091650640916606509167060E9496CC3B014C0100D000D00DB71EB719
:205000000F5F1F4F6091440370914503882777FD8095982F0E941DCB209158033091590381
:2050200040915A0350915B030E945BCD20E030E040E752E40E9482CA20E030E048EC52E464
:205040000E9482CA5B016C01F8016082718282829382F4828091430685838BE096E06CE6A7
:2050600076E040E656E020E001E032E0E32E0E94F14580916C0690916D06A0916E06B091A5
:205080006F0680930B0690930C06A0930D06B0930E068091700690917106A0917206B0919C
:2050A000730680930F0690931006A0931106B09312068091740690917506A0917606B0915C
:2050C00077068093130690931406A0931506B09316068091780690917906A0917A06B0911C
:2050E0007B068093170690931806A0931906B0931A068DB79EB706960FB6F8949EBF0FBE59
:205100008DBF0E9418C3609358067093590680935A0690935B061F910F91FF90EF90DF904F
:20512000CF90BF90AF909F908F907F906F900895CF92DF92EF92FF920F931F938CE696E069
:205140002EDD0E9418C3609358067093590680935A0690935B0660910B0670910C068091F7
:205160000D0690910E0620916C0630916D0640916E0650916F060E947BCA882309F07AC030
:2051800060910F06709110068091110690911206209170063091710640917206509173068F
:2051A0000E947BCA882309F065C0609158037091590380915A0390915B0320E030E040E772
:2051C00052E40E9482CA7B018C018CE696E060E776E044E756E028E736E0E3E4CE2EE6E00E
:2051E000DE2E0E94EA4F80916C0690916D06A0916E06B0916F0680930B0690930C06A093CA
:205200000D06B0930E068091700690917106A0917206B091730680930F0690931006A0930E
:205220001106B09312068091740690917506A0917606B09177068093130690931406A093CE
:205240001506B09316068091780690917906A0917A06B0917B068093170690931806A0938E
:205260001906B0931A061F910F91FF90EF90DF90CF9008956091440370914503882777FD3F
:205280008095982F0E941DCB209158033091590340915A0350915B030E945BCD20E030E038
:2052A00040E752E40E9482CA20E030E048EC52E488CF82E095E0ADDAE7EAF3E0949108C0E3
:2052C0008091C00085FFFCCF9093C600319694919923B1F7409150065091510660915206CD
:2052E000709153064F5F5F4F6F4F7F4F82E095E02AE030E04CDB8091C00085FFFCCF8AE0CA
:205300008093C600C7CD2F923F924F925F926F927F928F929F92AF92BF92CF92DF92EF9273
:20532000FF920F931F93DF93CF9300D000D0CDB7DEB78C018330910508F051C13C01660C6C
:20534000771C660C771C9301255F394F3A83298380E090E0A0E0B0E0F90180839183A28396
:20536000B3838BE096E06FE076E043E156E027E136E00E94DE4AF301E058FA4F65917591BE
:205380008591949108561A4FF801E49093012459394F3E832D8320E030E040EC5FE30E9474
:2053A0005BCD5B016C01FF24E7FCF0940F2D1F2DC801B7010E941DCB1B012C01C601B50119
:2053C000A20191010E945BCDAD81BE816D937D938D939C931397F301EC5CFC4FFC83EB83E4
:2053E0006081718182819381609358037093590380935A0390935B0320E030E040E752E4B8
:205400000E9482CA7B018C018CE696E060E776E044E756E028E736E0A3E4CA2EA6E0DA2E7D
:205420000E94EA4F0E940D6E80E090E0A0E0B0E0E981FA8180839183A283B3838BE096E05C
:205440006FE076E043E156E027E136E00E94DE4AF301E457FA4F85909590A590B490C50174
:20546000B4019058A20191010E945BCDAD81BE816D937D938D939C931397609158037091CD
:20548000590380915A0390915B0320E030E040E752E40E9482CA7B018C018CE696E060E730
:2054A00076E044E756E028E736E00E94EA4F0E940D6EC501B401A50194010E94A2C9A201B2
:2054C00091010E945BCDED81FE816083718382839383AB81BC816D917D918D919C9120E0D1
:2054E00030E040E05FE30E945BCD609358037093590380935A0390935B0320E030E040E79B
:2055000052E40E9482CA7B018C018CE696E060E776E044E756E028E736E00E94EA4F0E94D6
:205520000D6EF301E556FA4F6591759185919491F301E55EF94FA080B180C280D380A60135
:2055400095010E94A2C97B018C01CB01D801E981FA8180839183A283B383F301E955FA4F28
:205560006591759185919491F7E28F2EF6E09F2E860C971CA60195010E94A2C9D4016D9357
:205580007D938D939C931397F301ED54FA4F6591759185919491E8E4F3E06E0E7F1EA601EE
:2055A00095010E94A2C9D3016D937D938D939C931397C701D801ED81FE8180839183A283A1
:2055C000B38380E090E0A0E0B0E08093580390935903A0935A03B0935B030E94EE6C2696DF
:2055E0000FB6F894DEBF0FBECDBFCF91DF911F910F91FF90EF90DF90CF90BF90AF909F90AB
:205600008F907F906F905F904F903F902F900895409181065091820620E630E0B901469FEE
:205620009001479F300D569F300D1124682F772767FD7095C9018357994F0E9410109C01C6
:2056400090938C0680938B0680E0232B09F081E00895FC01949108C08091C00085FFFCCF42
:205660009093C600319694919923B1F782E095E022E030E092CA80918B0690918C060196C0
:2056800060E070E04AE050E00C946F0E80918B0690918C06019660E070E00C94120DCF9366
:2056A000DF93EC018091430680934F0684E5B0DF882309F46DC0EADF0E94EFCA262F609390
:2056C0004F06623008F464C0EFEEF2E0949108C08091C00085FFFCCF9093C6003196949132
:2056E0009923B1F7C936D10599F0CA36D10524F4C836D105F1F50FC0CD36D10531F0CA3D70
:20570000D105B9F5E0E2F2E031C0E7E3F2E023C0EEE4F2E015C0E5E6F2E007C08091C00053
:2057200085FFFCCF31969093C60090819923B1F720C08091C00085FFFCCF31969093C60045
:2057400090819923B1F715C08091C00085FFFCCF31969093C60090819923B1F70AC08091DF
:20576000C00085FFFCCF31969093C60090819923B1F782E095E0622F40E050E0F7D880915D
:20578000C00085FFFCCF8AE08093C60081E001C080E0DF91CF910895AF92BF92CF92DF9264
:2057A000EF92FF920F931F93CF93DF931BE0E12E16E0F12ECCE6D6E000E010E0F801E45229
:2057C000FC4F808125DF882331F160DF5B016C01F801EB5FF94F8081882311F061E002C069
:2057E00060917C0670E0882777FD8095982F0E941DCBF70120813181428153810E945BCDB1
:205800009B01AC01C601B5010E94A2C9688379838A839B8309C0F70180819181A281B38178
:2058200088839983AA83BB830F5F1F4F84E090E0E80EF91E24960430110509F0BFCF86E424
:20584000E7DE8823D9F022DF7B018C0160937D0670937E0680937F069093800620E030E0B7
:2058600040E050E00E9489CC181644F4E0925803F092590300935A0310935B03DF91CF910F
:205880001F910F91FF90EF90DF90CF90BF90AF90089582DF89E4BCDE882351F0F7DE609395
:2058A00060067093610680936206909363060CC080E090E0A0E0B0E0809360069093610662
:2058C000A0936206B09363068AE4A2DE882351F0DDDE60936406709365068093660690937F
:2058E0006706089580E090E0A0E0B0E08093640690936506A0936606B093670608952F9206
:205900003F924F925F926F927F928F929F92AF92BF92CF92DF92EF92FF920F931F93DF9344
:20592000CF93CDB7DEB76E970FB6F894DEBF0FBECDBF87E46DDE882309F408C2A7DE0E9451
:20594000EACA6430710509F43CC06530710554F46230710531F16330710554F57723CCF467
:205960000C94803E6A35710509F49FC16B35710534F46C31710511F00C94803E65C06B35E2
:20598000710509F496C16C35710511F00C94803E95C180914E06882321F4FEDEC9DB0C942C
:2059A000A73E80914E06882319F473DF81E006C080914E06882329F46CDF80E0FCDA0C941E
:2059C000A73E87E795E00E9482BC80E521DE882321F4CC24DD24760105C058DE0E94EFCA3D
:2059E0006B017C0183E514DE882359F04FDE20E030E04AE754E40E945BCD0E94EFCA6B0139
:205A00007C010E940D6E0E9418C34B015C018C0C9D1CAE1CBF1C0E9418C3609358067093FF
:205A2000590680935A0690935B0605C00E94157C5ADA0E9451BD0E9418C3681579058A052D
:205A40009B05A0F30C94803E8091580390915903A0915A03B0915B0380938706909388064E
:205A6000A0938906B0938A06809144039091450390930A068093090684E690E09093450336
:205A8000809344030E9418C3609358067093590680935A0690935B0681E00E94F56C809110
:205AA0000B0690910C06A0910D06B0910E0680936C0690936D06A0936E06B0936F0680917E
:205AC0000F0690911006A0911106B09112068093700690937106A0937206B093730680913E
:205AE000130690911406A0911506B09116068093740690937506A0937606B09377068091FE
:205B0000170690911806A0911906B0911A068093780690937906A0937A06B0937B0680E06E
:205B200090E0A0E0B0E08093580390935903A0935A03B0935B0388E56BDD882351F489E5B4
:205B400067DD882331F48AE563DD882311F481E001C080E080935C03882321F488E558DD7C
:205B6000882319F080E090E0CEDB80915C03882321F489E54DDD882319F081E090E0C3DB0D
:205B800080915C03882321F48AE542DD882319F082E090E0B8DB88E53BDD8823C9F06BDDFD
:205BA000611571058105910599F070DD20911B0630911C0640911D0650911E060E94A2C94C
:205BC00060930B0670930C0680930D0690930E0689E51EDD8823C9F04EDD611571058105E5
:205BE000910599F053DD20911F063091200640912106509122060E94A2C960930F06709380
:205C0000100680931106909312068AE501DD8823C9F031DD611571058105910599F036DDA6
:205C2000209123063091240640912506509126060E94A2C960931306709314068093150632
:205C4000909316068BE096E06FE076E043E156E027E136E00E94DE4A80E00E94F56C8091C9
:205C6000870690918806A0918906B0918A068093580390935903A0935A03B0935B03809128
:205C8000090690910A0690934503809344030E9418C3609358067093590680935A06909339
:205CA0005B060E94EE6C0C94803E10927C060C94803E81E080937C060C94803E85E4A8DC66
:205CC000882311F40E940D6E2BE0E22E26E0F22E9BE1C92E96E0D92E00E010E0F801E452C7
:205CE000FC4F808195DC882321F1033059F4CEDCF701608371838283938387E196E00E9496
:205D0000C14A17C0C3DCF60120813181428153810E94A2C9F70160837183828393838BE0BF
:205D200096E06FE076E043E156E027E136E00E94DE4A0F5F1F4F24E030E0E20EF31EC20E45
:205D4000D31E0430110551F60C94803E8DE460DC882311F40C942A3D99DC0E94EACA6D3691
:205D6000710509F4E2C46E3671050CF089C06E31710509F46AC26F3171050CF041C06631C3
:205D8000710509F4CEC167317105DCF46131710509F482C16231710534F46230710510F0A2
:205DA0000C94803E1EC16431710509F487C1653171050CF0B0C16231710511F00C94803E75
:205DC0007FC76931710509F4DAC16A31710554F46731710509F4ABC16831710511F00C9455
:205DE000803EBDC16B31710509F4ECC16B3171050CF4CBC16C31710511F00C94803EE8C1F2
:205E00006435710509F45CC765357105D4F46035710509F444C76135710554F46F317105FE
:205E200009F495C26A32710511F00C94803E40C36235710509F43BC7633571050CF03BC782
:205E400032C76836710509F471C36936710554F46535710509F48CC76C35710511F00C948F
:205E6000803E9CC76A36710509F4E2C66A3671050CF48AC36B36710511F00C94803E09C79D
:205E80006A3D710511F40C94483A6B3D71050CF04EC06C38710509F468C36D3871051CF528
:205EA0006537710511F40C946237663771055CF46237710511F40C9478376337710511F0BB
:205EC0000C94803EF0C76837710511F40C9469386937710511F40C946B386737710511F0DF
:205EE0000C94803E7AC06B3C710511F40C948E396C3C71055CF46E3B710509F4DEC5693CAF
:205F0000710511F00C94803E0C946C396D3C710511F40C94CC396D3C710514F40C94AC39F2
:205F20006E3C710511F00C94803E0C942A3A31E06033730711F40C94183C41E06133740797
:205F40001CF551E06C32750711F40C94153B81E06D32780764F46C3D710511F40C94F73A24
:205F60006D3D710511F00C94803E0C94063B91E06E32790711F40C94C33C6F52714014F016
:205F80000C94C73C0C94433BF1E0653F7F0711F40C940D3D21E0663F72076CF431E060392D
:205FA000730711F40C94073D645F714011F00C94803E0C940A3D53E0603A750709F48BC132
:205FC00083E0673E780711F40C94133D665F714011F00C94803E0C94103DECE7F2E00C943E
:205FE000763886E695E00E9482BC80E511DB882321F488249924540105C048DB0E94EFCA20
:206000004B015C0183E504DB882359F03FDB20E030E04AE754E40E945BCD0E94EFCA4B0198
:206020005C010E940D6E0E9418C3609358067093590680935A0690935B0681149104A104F0
:20604000B10401F10E9418C36B017C01C80CD91CEA1CFB1C0E9418C36C157D058E059F0596
:20606000A8F480918C1082FD11C00E94157C0E9473270E9451BDEECF0E94157C0E9473273C
:206080000E9451BD80918C1082FFF6CF87E595E00E9482BC0C94803E8EE495E00E9482BC77
:2060A0005F988A989FB7F894809108018E7F809308019FBF129847980C94803EEEE3F5E0B7
:2060C000949108C08091C00085FFFCCF9093C600319694919923B1F78091C00085FFFCCF5A
:2060E0008AE08093C60083E095E00E94A01DE0E3F5E0949108C08091C00085FFFCCF90935E
:20610000C600319694919923B1F78091C00085FFFCCF0C947D3E83E095E00E94FA180C94C2
:20612000803E83E095E00E94D2120C94803E80918B0690918C0604966AE270E00E94101098
:20614000FC01009711F03197108260918B0670918C066C5F7F4F83E095E041E072C083E014
:2061600095E00E94D6120E9418C3609346067093470680934806909349060C94803E83E080
:2061800095E00E94DD120C94803E80910605882311F40C94803E83E53BDA882311F40C94A4
:2061A000803E69DAAB01BC014093FA055093FB058093FC057093FD0587ED95E00E942D5F90
:2061C0000C94803E83E095E00E940D150C94803E80918B0690918C0604966AE270E00E943A
:2061E00010107C01009721F1209181063091820680E690E0FC012E9FC0012F9F900D3E9F2F
:20620000900D11248357994F6EE470E00E94101060E270E00E9410109C012F5F3F4F3093B6
:206220008C0620938B060894E108F108F701108260918B0670918C066C5F7F4F83E095E0FA
:2062400040E00E94D5160C94803E80910605882311F40C94803E83E095E00E941A14809150
:206260008B0690918C0604966AE270E00E9410107C01009721F1209181063091820680E6D5
:2062800090E0AC01249FC001259F900D349F900D11248357994F6EE470E00E94101060E2EF
:2062A00070E00E9410109C012F5F3F4F30938C0620938B060894E108F108F7011082609181
:2062C0008B0670918C066C5F7F4F83E095E00E9467150C94803E80918B0690918C060596BD
:2062E0006AE270E00E9410107C01009721F1209181063091820680E690E0AC01249FC00192
:20630000259F900D349F900D11248357994F6EE470E00E94101060E270E00E9410109C0160
:206320002F5F3F4F30938C0620938B060894E108F108F701108260918B0670918C066B5FC1
:206340007F4F83E095E00E94F4180C94803E0E9418C360934A0670934B0680934C069093EF
:206360004D0620914606309147064091480650914906621B730B840B950B28EE33E040E0FD
:2063800050E00E9473CEF22EE32ED42EC52E2DB73EB7285030400FB6F8943EBF0FBE2DBFFC
:2063A0000DB71EB70F5F1F4FCE010196EDB7FEB79283818381E295E0F801938382836F2D08
:2063C0007E2D842F952F2CE330E040E050E00E9473CEF801358324836F2D7E2D8D2D9C2D27
:2063E0002CE330E040E050E00E9473CEF801778366830E943F10EFEEF2E094912DB73EB7D1
:20640000285F3F4F0FB6F8943EBF0FBE2DBF08C08091C00085FFFCCF9093C60031969491A3
:206420009923B1F7FE01319607C08091C00085FFFCCF31969093C60090819923B1F7809115
:20644000C00085FFFCCF8AE08093C600CE0101960E94A4BC80918908882311F40C94803ED2
:206460001092890880914306E82EFF24EE0CFF1C4DEC5FE0E40EF51EF7016081718188274A
:2064800077FD8095982F0E941DCB209161033091620340916303509164030E9489CC181643
:2064A00014F00C94803EF701118210820C94803E83E5AED8882311F40C94803EE7D80E94A2
:2064C000EACA6B017C015B0180E5A2D8882361F0D7FC0AC0FFEFCF16D10409F02CF4D6D8DC
:2064E0000E94EACA8B0102C00DE010E0E0EEF3E0808191818017910711F40C94803E32960D
:2065000024E0E036F207A1F717FF02C00C94803E802F61E00E94C9C4802F6A2D0E947CC552
:20652000802FB5010E94EBC30C94803E88E690E0B6D8882311F00C94803E83E569D888237E
:2065400081F0A4D820914F06E22EFF24EE0CFF1C4DEC5FE0E40EF51E0E94EACAF701718341
:2065600060830E94EA760C94803E83E551D8882311F40C94803E8AD80E94EACA7093D20F9D
:206580006093D10F0C94803E89E690E088D8882311F00C94803EEBE1F5E0949108C08091E2
:2065A000C00085FFFCCF9093C600319694919923B1F7E0914F06F0E0EE0FFF1FEE0FFF1FC7
:2065C000E952F04F408151816281738182E095E021E030E00E94CD25E8E1F5E0949108C0D0
:2065E0008091C00085FFFCCF9093C600319694919923B1F7E0914F06F0E0EE0FFF1FE3535B
:20660000F04F60817181882777FD8095982F0E941DCBAB01BC0182E095E021E030E00E94EC
:20662000CD25E4E1F5E0949108C08091C00085FFFCCF9093C600319694919923B1F74091B7
:20664000E10F5091E20F6091E30F7091E40F82E095E021E030E00E94CD25E1E1F5E0949169
:2066600008C08091C00085FFFCCF9093C600319694919923B1F76091D10F7091D20F882797
:2066800077FD8095982F0E941DCBAB01BC0182E095E021E030E00E94CD25EDE0F5E0949174
:2066A00008C08091C00085FFFCCF9093C600319694919923B1F780914F060E942F76BC014F
:2066C00082E095E04AE050E00E94FA24E8E0F5E0949108C08091C00085FFFCCF9093C60036
:2066E000319694919923B1F78FEF9FEF0E942F76BC0182E095E04AE050E00E94FA24E5E97B
:20670000F2E007C08091C00085FFFCCF31969093C60090819923B1F78091C00085FFFCCF7B
:206720008AE08093C6000C94A73E8DE690E00E944F2B882311F00C94803E8DEF94E00E94F6
:2067400082BC1092890883E50E94082B882389F00E94462B20914F06E22EFF24EE0CFF1C06
:206760002DEC3FE0E20EF31E0E94EACAF7017183608383E50E94082B882351F00E94462B7F
:206780006093610370936203809363039093640382E40E94082B882351F00E94462B60930A
:2067A0005D0370935E0380935F039093600386E40E94082B882369F00E94462B6093650369
:2067C00070936603809367039093680381E0809389080E94EA760E9418C34B015C01209164
:2067E0004F06E22EFF247724EE0CFF1CF701E353F04F60817181882777FD8095982F0E9480
:206800001DCBEE0CFF1C27ED3FE0E20EF31EF70120813181428153810E9489CC181614F438
:2068200077247394CC24CA94DC2C7601EAEFF4E04490E6EFF4E05490E2EFF4E064905AE008
:20684000352E2EC1942DEAEFF4E008C08091C00085FFFCCF9093C600319694919923B1F757
:20686000E0914F06F0E0EE0FFF1FEE0FFF1FE952F04F408151816281738182E095E021E090
:2068800030E00E94CD25952DE6EFF4E008C08091C00085FFFCCF9093C60031969491992370
:2068A000B1F760914F0682E095E070E04AE050E00E94FA24962DE2EFF4E008C08091C000A8
:2068C00085FFFCCF9093C600319694919923B1F7F7FE03C0E6E9F2E028C00E9418C3A701CA
:2068E0009601205F384D4F4F5F4F261B370B480B590BCA01B90128EE33E040E050E00E94D7
:2069000073CE82E095E0BA01A9012AE030E00E94AB248091C00085FFFCCF0EC08091C000B0
:2069200085FFFCCF31969093C60090819923B1F78091C00085FFFCCF3092C6000E9418C3BE
